S01900004B32305F4C61625F426F6172645F56342E322E686578C8
S113000000000020D50C00000108000001080000D9
S113001001080000010800000108000000000000C1
S113002000000000000000000000000001080000C3
S113003001080000000000000108000001080000A1
S11300400108000001080000010800000108000088
S11300500108000001080000010800000108000078
S11300600108000001080000010800000108000068
S11300700108000001080000010800000108000058
S11300800108000001080000010800000108000048
S11300900108000001080000010800000108000038
S11300A00108000001080000010800000108000028
S11300B00108000001080000010800000108000018
S11300C00108000001080000010800000108000008
S11300D001080000010800000108000001080000F8
S11300E001080000010800000108000001080000E8
S11300F001080000CD0A000001080000010800000A
S113010001080000010800000108000001080000C7
S113011001080000010800000108000001080000B7
S113012001080000010800000108000001080000A7
S11301300108000001080000010800000108000097
S11301400108000001080000010800000108000087
S1130150A90B0000010800000108000001080000CC
S11301600108000001080000010800000108000067
S11301700108000001080000010800000108000057
S11301800108000001080000010800000108000047
S11301900108000001080000010800000108000037
S11301A00D080000010800000108000055090000C6
S11301B00108000001080000010800000108000017
S11301C00108000001080000010800000108000007
S11301D001080000010800000108000001080000F7
S113080080B400AF00BEBD4680BC704790B583B0D5
S113081002AF4FF42043C4F20403D3F8A03003F42E
S11308208063002B19D040F25D03C1F6FF73187882
S113083040F25C03C1F6FF73197840F25703C1F626
S1130840FF731A7840F25603C1F6FF731B784FF01A
S11308501004009401F044F96AE04FF42043C4F218
S11308600403D3F8A03003F40063002B19D040F242
S11308705D03C1F6FF73187840F25C03C1F6FF73A1
S1130880197840F25703C1F6FF731A7840F2560301
S1130890C1F6FF731B784FF02004009401F020F997
S11308A046E04FF42043C4F20403D3F8A03003F429
S11308B08033002B19D040F25D03C1F6FF73187822
S11308C040F25C03C1F6FF73197840F25703C1F696
S11308D0FF731A7840F25603C1F6FF731B784FF08A
S11308E03004009401F0FCF822E04FF42043C4F2F9
S11308F00403D3F8A03003F40033002B18D040F2E3
S11309005D03C1F6FF73187840F25C03C1F6FF7310
S1130910197840F25703C1F6FF731A7840F2560370
S1130920C1F6FF731B784FF00004009401F0D8F86F
S11309304FF42043C4F20403D3F8A0304FF420430F
S1130940C4F204034FF0FF32C3F8A02007F10407F8
S1130950BD4690BD80B500AF4FF45043C4F20403CC
S1130960D3F8A03003F00403002B20D04FF0010093
S113097001F03CF840F25D03C1F6FF734FF0010251
S11309801A7040F25C03C1F6FF734FF000021A7054
S113099040F25703C1F6FF734FF000021A7040F2A1
S11309A05603C1F6FF734FF000021A707FE04FF454
S11309B05043C4F20403D3F8A03003F00803002B1F
S11309C020D04FF0020001F011F840F25D03C1F6AF
S11309D0FF734FF000021A7040F25C03C1F6FF731C
S11309E04FF002021A7040F25703C1F6FF734FF042
S11309F000021A7040F25603C1F6FF734FF0000272
S1130A001A7054E04FF45043C4F20403D3F8A030F6
S1130A1003F01003002B20D04FF0030000F0E6FF9A
S1130A2040F25D03C1F6FF734FF000021A7040F20A
S1130A305C03C1F6FF734FF000021A7040F25703D3
S1130A40C1F6FF734FF003021A7040F25603C1F669
S1130A50FF734FF000021A7029E04FF45043C4F2C0
S1130A600403D3F8A03003F02003002B1FD04FF071
S1130A70040000F0BBFF40F25D03C1F6FF734FF0CA
S1130A8000021A7040F25C03C1F6FF734FF00002DB
S1130A901A7040F25703C1F6FF734FF000021A7048
S1130AA040F25603C1F6FF734FF004021A704FF47C
S1130AB05043C4F204034FF45042C4F20402D2F887
S1130AC0A02042F0FF02C3F8A02080BD80B500AF93
S1130AD04FF42043C4F206031B79DBB203F0200376
S1130AE0002B5FD04FF42043C4F20603DB79DBB262
S1130AF01A4640F25803C1F6FF731A604FF42043BC
S1130B00C4F206031B79DBB2DBB25BB2002B49DA19
S1130B104FF0010000F070FD03461A4640F2500306
S1130B20C1F6FF731A704FF0020000F065FD034632
S1130B301A4640F25003C1F6FF735A704FF0030097
S1130B4000F05AFD03461A4640F25003C1F6FF7303
S1130B509A704FF0040000F04FFD03461A4640F22D
S1130B605003C1F6FF73DA704FF0050000F044FD46
S1130B7003461A4640F25003C1F6FF731A714FF050
S1130B80060000F039FD03461A4640F25003C1F650
S1130B90FF735A7140F25000C1F6FF704FF0060126
S1130BA000F01AF980BD00BF80B500AF40F2280301
S1130BB0C1F6FF731B6803F1010240F22803C1F67A
S1130BC0FF731A6040F22C03C1F6FF731B6803F134
S1130BD0010240F22C03C1F6FF731A6040F22803AD
S1130BE0C1F6FF731B68DBB203F1FF33DBB240F2E3
S1130BF07800C1F6FF70194600F0B8FB40F22803F4
S1130C00C1F6FF731B68062B06D140F22803C1F618
S1130C10FF734FF000021A6040F22C03C1F6FF7319
S1130C201B68B3F57A7F0DD140F22C03C1F6FF7334
S1130C304FF000021A6040F24C03C1F6FF734FF00C
S1130C4001021A704FF4E043C4F203034FF4E0428C
S1130C50C4F20302D2F80C2142F00102C3F80C21C1
S1130C6080BD00BF80B400AF4FF0E02240F200032B
S1130C70C0F20003C2F8083D4FF40053C4F2050368
S1130C804CF22052DA814FF40053C4F205034DF6BE
S1130C902812DA814FF40053C4F205034FF0D20254
S1130CA01A80BD4680BC704780B500AF40F2900208
S1130CB0C1F6FF7240F22803C1F6FF73D31A40F263
S1130CC02800C1F6FF704FF000011A4601F0D0FA77
S1130CD080BD00BF02F022FBFFF7C4FFFFF7E4FF73
S1130CE002F0F8FA02F094FA02F02AFB4FF0000046
S1130CF040F23001C1F6FF7100F00AF803461846CD
S1130D0001F09AFA80B483B000AF7860FEE700BFC8
S1130D1080B500AF00F0E8FD00F014FA00F074FABA
S1130D2001F0AAF801F0AAF900F082F801F0C4F881
S1130D304FF0010000F066FB00F0CAFD00F0EEF990
S1130D4000E000BF01F006FA01F0A0F9024640F20B
S1130D506C03C1F6FF731A6040F26C03C1F6FF73B3
S1130D601B68184601F0D8F840F24C03C1F6FF7333
S1130D701B78012BE5D140F24C03C1F6FF734FF011
S1130D8000021A7001F0DAF94FF0010000F0FAF8ED
S1130D9001F07CF9024640F26003C1F6FF731A6069
S1130DA001F0A0F9024640F26803C1F6FF731A602D
S1130DB040F26003C1F6FF731A6840F26803C1F69B
S1130DC0FF731B681046194640F27802C1F6FF72A1
S1130DD001F0CCF9B5E700BF80B485B000AF78600E
S1130DE00B46FB704FF00003FB8117E000BF4FF48C
S1130DF02043C4F206031B79DBB2DBB25BB2002BE7
S1130E00F5DA4FF42043C4F20603FA8979688A18A4
S1130E101278DA71FB8903F10103FB81FB789BB241
S1130E20FA899A42E2D307F11407BD4680BC7047A1
S1130E3080B400AF4FF4E043C4F204034FF4E04243
S1130E40C4F2040202F5815202F11402126842F45F
S1130E50806203F5815303F114031A604FF41043C5
S1130E60C4F204034FF400725A604FF41043C4F206
S1130E7004034FF400729A6040F20003C1F6FF735A
S1130E801B884FF47A7202FB03F240F20203C1F6AC
S1130E90FF731B884FEA031392FBF3F39AB240F2F9
S1130EA08A03C1F6FF731A804FF42043C4F2060389
S1130EB040F28A02C1F6FF72128802F4F8524FEA35
S1130EC02222D2B21A704FF42043C4F2060340F235
S1130ED08A02C1F6FF721288D2B25A7040F200033D
S1130EE0C1F6FF731B884FF4FA4202FB03F240F28F
S1130EF00203C1F6FF731B884FEA031392FBF3F35B
S1130F009AB240F28A03C1F6FF731B8819464FEA6E
S1130F10C121CB1A4FEA43139BB2D3189AB240F2C1
S1130F208803C1F6FF731A804FF42043C4F206030A
S1130F3040F28802C1F6FF721288D2B202F01F0298
S1130F40D2B29A724FF42043C4F206034FF0000267
S1130F509A704FF42043C4F206034FF02002DA7073
S1130F604FF42043C4F206034FF42042C4F20602B5
S1130F70D278D2B242F00C02D2B2DA70BD4680BC52
S1130F80704700BF80B485B000AF78604FF00003B5
S1130F90FB810FE04FF00003BB8104E000BFBB897D
S1130FA003F10103BB81BB89632BF7D9FB8903F1EF
S1130FB00103FB81FA897B689A42EBD307F114079A
S1130FC0BD4680BC704700BF80B485B000AF786078
S1130FD07B68002B01DA03F11F034FEA6313FB6004
S1130FE0FB68012B34D0022B62D0002B40F09080A0
S1130FF04FF46142CEF2000279684FF01F03C8F249
S113100000030B40002B05DA03F1FF3363F01F03E9
S113101003F101034FF0010101FA03F3C2F8803137
S11310204FF46142CEF2000279684FF01F03C8F218
S113103000030B40002B05DA03F1FF3363F01F03B9
S113104003F101034FF0010101FA03F313605FE0C0
S11310504FF46142CEF2000279684FF01F03C8F2E8
S113106000030B40002B05DA03F1FF3363F01F0389
S113107003F101034FF0010101FA03F3C2F88431D3
S11310804FF46142CEF2000279684FF01F03C8F2B8
S113109000030B40002B05DA03F1FF3363F01F0359
S11310A003F101034FF0010101FA03F353602FE050
S11310B04FF46142CEF2000279684FF01F03C8F288
S11310C000030B40002B05DA03F1FF3363F01F0329
S11310D003F101034FF0010101FA03F3C2F888316F
S11310E04FF46142CEF2000279684FF01F03C8F258
S11310F000030B40002B05DA03F1FF3363F01F03F9
S113110003F101034FF0010101FA03F3936000BFFF
S113111007F11407BD4680BC704700BF80B500AF1F
S11311204FF02D00FFF750FF4FF04400FFF74CFF46
S11311304FF05800FFF748FF4FF05B00FFF744FF04
S113114080BD00BF80B400AF4FF4E043C4F2040399
S11311504FF4E042C4F2040202F5815202F1180293
S1131160126842F4105203F5815303F118031A6014
S11311704FF42043C4F2040340F20312C0F20A0203
S11311809A624FF42043C4F2040340F20312C0F203
S11311900A02DA624FF42043C4F2040340F2031259
S11311A0C0F20A021A644FF42043C4F2040340F26A
S11311B00312C0F20A025A644FF45043C4F2040307
S11311C040F20312C0F20A029A604FF45043C4F290
S11311D0040340F20312C0F20A02DA604FF45043EF
S11311E0C4F2040340F20312C0F20A021A614FF47B
S11311F05043C4F2040340F20312C0F20A025A61DB
S1131200BD4680BC704700BF80B400AF4FF4E043DC
S1131210C4F204034FF4E042C4F2040202F5815222
S113122002F11802126842F4905203F5815303F15B
S113123018031A604FF41043C4F204034FF480728D
S11312401A634FF41043C4F204034FF480725A63D8
S11312504FF41043C4F204034FF480729A634FF4C2
S11312601043C4F204034FF48072DA634FF4104362
S1131270C4F204034FF480721A644FF41043C4F2AE
S113128004034FF480725A644FF44043C4F20403DD
S11312904FF480721A604FF44043C4F204034FF4D5
S11312A080725A604FF44043C4F204034FF48072D6
S11312B09A604FF44043C4F204034FF48072DA603E
S11312C04FF44043C4F204034FF480721A614FF4A4
S11312D04043C4F204034FF480725A614FF4404314
S11312E0C4F204034FF480729A614FF44043C4F291
S11312F004034FF48072DA614FF47043C4F20F03B5
S11313004FF47042C4F20F02526942F47C325A61C3
S11313104FF2C003C4F20F034FF2C002C4F20F0233
S1131320526942F0FF025A614FF47043C4F20F0352
S11313304FF47042C4F20F02126842F47C321A6015
S11313404FF2C003C4F20F034FF000021A604FF4CF
S11313507043C4F20F034FF47042C4F20F021268D8
S113136022F47C321A60BD4680BC704790B482B0CF
S113137000AF78600B46FB704FF47043C4F20F0368
S11313804FF47042C4F20F02126842F47F221A60D2
S11313904FF2C003C4F20F03FA7879688A181278FE
S11313A0114640F20402C1F6FF72525C1A604FF417
S11313B07042C4F20F024FF47043C4F20F031C686E
S11313C0F9784AF6AB23CAF6AA23A3FB01034FEA32
S11313D0930003464FEA43031B184FEA4303CB1A17
S11313E0DBB2194640F21003C1F6FF7353F8213003
S11313F06FEA03032340136007F10807BD4690BC5E
S1131400704700BF80B483B000AF78604FF4E0430E
S1131410C4F204034FF4E042C4F2040202F5815220
S113142002F11C02126842F4000203F5815303F135
S11314301C031A604FF4E043C4F203034FF4E04288
S1131440C4F20302126822F002021A604FF4E0436D
S1131450C4F203037A6844F6206101FB02F2C3F884
S113146000214FF4E043C4F203034FF4E042C4F21A
S11314700302D2F8082142F00202C3F808214FF413
S1131480E043C4F203034FF4E042C4F20302D2F88F
S1131490082142F00102C3F8082107F10C07BD46F8
S11314A080BC704780B400AF4FF4E043C4F204033F
S11314B04FF4E042C4F2040202F5815202F1140234
S11314C0126842F0400203F5815303F114031A60D9
S11314D04FF4E043C4F204034FF4E042C4F20402C4
S11314E002F5815202F11802126842F4806203F597
S11314F0815303F118031A604FF42043C4F2040328
S11315004FF400721A604FF42043C4F204034FF402
S113151000725A604FF4C043C4F206034FF0140241
S11315205A704FF4C043C4F206034FF080029A701D
S1131530BD4680BC704700BF80B485B000AF024692
S11315400B46FA71BB71BB79002B07D140F28D03B6
S1131550C1F6FF734FF000021A7006E040F28D03EB
S1131560C1F6FF734FF001021A704FF03A03FB7398
S113157040F28D03C1F6FF731A78FB7B1343FB73B0
S11315804FF4C043C4F206034FF4C042C4F206024F
S11315909278D2B242F01002D2B29A704FF4C043A1
S11315A0C4F206034FF4C042C4F206029278D2B2E7
S11315B042F02002D2B29A704FF4C043C4F2060340
S11315C0FA7B1A7107F11407BD4680BC704700BF4F
S11315D080B483B000AF4FF001037B6004E000BF30
S11315E07B6803F101037B607B68312BF7DD07F136
S11315F00C07BD4680BC704780B584B000AF03467D
S1131600FB7140F28C03C1F6FF731B7818464FF050
S11316100001FFF791FF4FF4C043C4F20603DB78E7
S1131620DBB203F00203002BF5D04FF4C043C4F245
S113163006034FF4C042C4F20602D278D2B242F09A
S11316400202D2B2DA704FF4C043C4F20603FA794C
S11316501A714FF4C043C4F20603DB78DBB203F023
S11316600203002BF5D04FF4C043C4F206034FF439
S1131670C042C4F20602D278D2B242F00202D2B21E
S1131680DA704FF4C043C4F206034FF4C042C4F20C
S113169006029278D2B242F00402D2B29A704FF4A7
S11316A0C043C4F206034FF03B021A714FF4C04327
S11316B0C4F20603DB78DBB203F00203002BF5D09F
S11316C04FF4C043C4F206034FF4C042C4F206020E
S11316D0D278D2B242F00202D2B2DA704FF4C043EE
S11316E0C4F206034FF4C042C4F206029278D2B2A6
S11316F022F01002D2B29A704FF4C043C4F206032F
S11317004FF4C042C4F206029278D2B242F0080208
S1131710D2B29A704FF4C043C4F206031B79FB7231
S11317204FF00003FB6003E0FB6803F10103FB607F
S1131730FA6841F287339A42F6D94FF4C043C4F2AF
S11317400603DB78DBB203F00203002BF5D04FF481
S1131750C043C4F206034FF4C042C4F20602D27876
S1131760D2B242F00202D2B2DA704FF4C043C4F2F1
S113177006034FF4C042C4F206029278D2B222F0B9
S11317802002D2B29A704FF4C043C4F206034FF45D
S1131790C042C4F206029278D2B222F01002D2B24F
S11317A09A704FF4C043C4F206031B79FB72FFF72F
S11317B00FFFFB7A184607F11007BD4680BD00BF36
S11317C080B582B000AF02460B46FA71BB7140F29D
S11317D08C03C1F6FF731B7818464FF00001FFF726
S11317E0ABFE4FF4C043C4F20603DB78DBB203F074
S11317F00203002BF5D04FF4C043C4F206034FF4A8
S1131800C042C4F20602D278D2B242F00202D2B28C
S1131810DA704FF4C043C4F20603FA791A714FF434
S1131820C043C4F20603DB78DBB203F00203002BEF
S1131830F5D04FF4C043C4F206034FF4C042C4F2DF
S11318400602D278D2B242F00202D2B2DA704FF477
S1131850C043C4F20603BA791A714FF4C043C4F208
S11318600603DB78DBB203F00203002BF5D04FF460
S1131870C043C4F206034FF4C042C4F20602D27855
S1131880D2B242F00202D2B2DA704FF4C043C4F2D0
S113189006034FF4C042C4F206029278D2B222F098
S11318A02002D2B29A704FF4C043C4F206034FF43C
S11318B0C042C4F206029278D2B222F01002D2B22E
S11318C09A70FFF785FE07F10807BD4680BD00BF8B
S11318D080B500AFFFF7E6FD4FF02A004FF001019D
S11318E0FFF76EFF80BD00BF80B400AF4FF4E0434C
S11318F0C4F204034FF4E042C4F2040202F581523C
S113190002F11802126842F4006203F5815303F1F4
S113191018031A604FF43043C4F204034FF4807286
S11319201A604FF43043C4F204034FF480725A60D7
S11319304FF43043C4F204034FF480729A604FF4BE
S11319403043C4F204034FF48072DA604FF430433E
S1131950C4F204034FF480721A614FF43043C4F2AA
S113196004034FF480725A614FF43043C4F2040309
S11319704FF480729A614FF43043C4F204034FF47D
S11319808072DA614FF43043C4F204034FF480727E
S11319901A624FF43043C4F204034FF480725A6263
S11319A04FF43043C4F204034FF480729A624FF44C
S11319B03043C4F204034FF48072DA624FF28003BE
S11319C0C4F20F034FF28002C4F20F0252696FEAAD
S11319D012326FEA02325A614FF28003C4F20F03EB
S11319E040F6FF721A60BD4680BC704780B483B075
S11319F000AF0346FB71FB7903F1FF33032B5BD884
S1131A0001A252F823F000BF191A0000411A000085
S1131A10691A0000911A00004FF28003C4F20F0308
S1131A2040F6FF721A604FF28003C4F20F034FF2C4
S1131A308002C4F20F02126822F007021A604AE020
S1131A404FF28003C4F20F0340F6FF721A604FF2A4
S1131A508003C4F20F034FF28002C4F20F02126833
S1131A6022F038021A6036E04FF28003C4F20F030A
S1131A7040F6FF721A604FF28003C4F20F034FF274
S1131A808002C4F20F02126822F4E0721A6022E0AB
S1131A904FF28003C4F20F0340F6FF721A604FF254
S1131AA08003C4F20F034FF28002C4F20F021268E3
S1131AB022F460621A600EE04FF28003C4F20F0356
S1131AC04FF28002C4F20F02126822F47F6222F005
S1131AD00F021A6000BF07F10C07BD4680BC7047B7
S1131AE080B485B000AFF871B9717A713B71FA793D
S1131AF0BB791343DAB27B791343DAB23B791343EC
S1131B00DAB23B7E1343FB73FB7B03F1FF33332BCE
S1131B1000F2AC8101A252F823F000BFED1B0000DB
S1131B20151C00003D1C0000651C00006D1E00001B
S1131B306D1E00006D1E00006D1E00006D1E000075
S1131B406D1E00006D1E00006D1E00006D1E000065
S1131B506D1E00006D1E00006D1E00008D1C000037
S1131B60B51C0000DD1C0000051D00006D1E0000FA
S1131B706D1E00006D1E00006D1E00006D1E000035
S1131B806D1E00006D1E00006D1E00006D1E000025
S1131B906D1E00006D1E00006D1E00002D1D000056
S1131BA0551D00007D1D0000A51D00006D1E0000D8
S1131BB06D1E00006D1E00006D1E00006D1E0000F5
S1131BC06D1E00006D1E00006D1E00006D1E0000E5
S1131BD06D1E00006D1E00006D1E0000CD1D000076
S1131BE0F51D00001D1E0000451E00004FF280037D
S1131BF0C4F20F0340F6FF721A604FF28003C4F27E
S1131C000F034FF28002C4F20F02126822F007029F
S1131C101A602CE14FF28003C4F20F0340F6FF7206
S1131C201A604FF28003C4F20F034FF28002C4F231
S1131C300F02126822F038021A6018E14FF2800392
S1131C40C4F20F0340F6FF721A604FF28003C4F22D
S1131C500F034FF28002C4F20F02126822F4E07202
S1131C601A6004E14FF28003C4F20F0340F6FF72DE
S1131C701A604FF28003C4F20F034FF28002C4F2E1
S1131C800F02126822F460621A60F0E04FF28003DF
S1131C90C4F20F0340F6FF721A604FF28003C4F2DD
S1131CA00F034FF28002C4F20F02126822F0010205
S1131CB01A60DCE04FF28003C4F20F0340F6FF72B7
S1131CC01A604FF28003C4F20F034FF28002C4F291
S1131CD00F02126822F008021A60C8E04FF2800373
S1131CE0C4F20F0340F6FF721A604FF28003C4F28D
S1131CF00F034FF28002C4F20F02126822F0400276
S1131D001A60B4E04FF28003C4F20F0340F6FF728E
S1131D101A604FF28003C4F20F034FF28002C4F240
S1131D200F02126822F400721A60A0E04FF28003DE
S1131D30C4F20F0340F6FF721A604FF28003C4F23C
S1131D400F034FF28002C4F20F02126822F0020263
S1131D501A608CE04FF28003C4F20F0340F6FF7266
S1131D601A604FF28003C4F20F034FF28002C4F2F0
S1131D700F02126822F010021A6078E04FF280031A
S1131D80C4F20F0340F6FF721A604FF28003C4F2EC
S1131D900F034FF28002C4F20F02126822F0800295
S1131DA01A6064E04FF28003C4F20F0340F6FF723E
S1131DB01A604FF28003C4F20F034FF28002C4F2A0
S1131DC00F02126822F480621A6050E04FF280031E
S1131DD0C4F20F0340F6FF721A604FF28003C4F29C
S1131DE00F034FF28002C4F20F02126822F00402C1
S1131DF01A603CE04FF28003C4F20F0340F6FF7216
S1131E001A604FF28003C4F20F034FF28002C4F24F
S1131E100F02126822F020021A6028E04FF28003B9
S1131E20C4F20F0340F6FF721A604FF28003C4F24B
S1131E300F034FF28002C4F20F02126822F4807280
S1131E401A6014E04FF28003C4F20F0340F6FF72ED
S1131E501A604FF28003C4F20F034FF28002C4F2FF
S1131E600F02126822F400621A6000E000BF07F15A
S1131E701407BD4680BC704780B400AF4FF4E04304
S1131E80C4F204034FF4E042C4F2040202F58152A6
S1131E9002F11002126842F0807203F5815303F1DB
S1131EA010031A604FF42043C4F204034FF4407249
S1131EB09A64BD4680BC704780B400AF4FF40043C1
S1131EC0C4F20B034FF000025A604FF40043C4F213
S1131ED00B034FF42F529A604FF40043C4F20B03E8
S1131EE04FF00002DA644FF40043C4F20B034FF0E6
S1131EF008021A604FF40043C4F20B034FF02802A7
S1131F00DA604FF40043C4F20B034FF000021A618D
S1131F10BD4680BC704700BF80B483B000AF78601A
S1131F204FF40043C4F20B037A684FEA42029A600A
S1131F304FF40043C4F20B037A681A6107F10C07EB
S1131F40BD4680BC704700BF80B400AF4FF4E0438F
S1131F50C4F204034FF4E042C4F2040202F58152D5
S1131F6002F11802126842F4806203F5815303F10E
S1131F7018031A604FF4E043C4F204034FF4E04240
S1131F80C4F2040202F5815202F11C02126842F00A
S1131F90006203F5815303F11C031A604FF42043DC
S1131FA0C4F204034FF00002DA604FF43043C4F289
S1131FB003034FF014029A604FF43043C4F2030356
S1131FC04FF008025A624FF43043C4F203034FF057
S1131FD00D021A60BD4680BC704700BF80B400AFDC
S1131FE04FF4E043C4F204034FF4E042C4F20402A9
S1131FF002F5815202F11802126842F4005203F50C
S1132000815303F118031A604FF4E043C4F204034C
S11320104FF4E042C4F2040202F5815202F11002CC
S1132020126842F0006203F5815303F110031A6051
S11320304FF45043C4F204034FF000021A604FF40B
S11320405043C4F204034FF000025A604FF430438B
S1132050C4F20B034FF014029A604FF43043C4F2FD
S11320600B034FF008025A624FF43043C4F20B03DF
S11320704FF004021A60BD4680BC704780B500AFC3
S1132080FFF762FFFFF7AAFF80BD00BF80B400AF77
S113209000BF4FF43043C4F20B031B6803F080030A
S11320A0002BF6D04FF43043C4F20B031A6940F20C
S11320B08003C1F6FF731A604FF43043C4F20B037C
S11320C04FF43042C4F20B02126822F080021A600C
S11320D040F28003C1F6FF731B681846BD4680BCFE
S11320E0704700BF80B400AF00BF4FF43043C4F268
S11320F003031B6803F08003002BF6D04FF4304336
S1132100C4F203031A6940F28003C1F6FF731A6034
S11321104FF43043C4F203034FF43042C4F20302D9
S1132120126822F080021A6040F28003C1F6FF7345
S11321301B681846BD4680BC704700BF80B400AF22
S11321404FF43043C4F20B034FF005021A60BD464E
S113215080BC704780B400AF4FF43043C4F20B032B
S11321604FF004021A60BD4680BC704780B487B04B
S113217000AFF860B9607A60FB68DBB2FB60BB68F3
S11321804FEA1313BB604FF00003FB7522E0FB7DA5
S11321907A68D018F9684CF6CD43CCF6CC43A3FB4F
S11321A001234FEAD30213464FEA83039B184FEAF5
S11321B04303CA1AD3B20370FA684CF6CD43CCF683
S11321C0CC43A3FB02134FEAD303FB60FB7D03F173
S11321D00103FB75FB7D022BD9D94FF00303FB757B
S11321E022E0FB7D7A68D018B9684CF6CD43CCF672
S11321F0CC43A3FB01234FEAD30213464FEA8303E4
S11322009B184FEA4303CA1AD3B20370BA684CF658
S1132210CD43CCF6CC43A3FB02134FEAD303BB60FC
S1132220FB7D03F10103FB75FB7D052BD9D907F178
S11322301C07BD4680BC70470B4C08B5054601F031
S113224061F801F00BF8236813B19847002020606F
S1132250064C216811B18847002222602846BDE857
S11322600840FEF74FBD00BF3400FF1F3800FF1FBA
S113227010B5044600F070FF204610BD2DE9F04F64
S113228085B08046039200229DF838C09DF83C40FA
S113229001F8012C01F1FF3AD0B9119AC2B9BCF18D
S11322A0000F01D06F2C31D0642C02D0692C40F087
S11322B0AC80022B03D1A1F1020A202005E0012BFE
S11322C040F0A380A1F1020A2B2001F8020C9CE04B
S11322D0692C0FD004D8582C14D0642C1AD109E0DE
S11322E0752C05D0782C0DD06F2C13D100230EE063
S11322F000230FE000280DDAB0F1004F0CD040426B
S1132300804609E000231D46102207E0119B1D466C
S1132310082203E0002500E001250A228E1E019612
S11323204FF0000AB8FBF2F702FB178BBBF1090F61
S11323300297B84602D80BF1300B05E0782C0CBF9D
S11323400BF1570B0BF1370B019F029E07F1FF397D
S11323505FFA8BFBCDF8049087F800B00AF101090D
S11323600EB1CA46DEE7082AB8460CD1BCF1000F0C
S113237009D0BBF1300F06D04FF03009019F08F8A7
S1132380019C0AF10209039E022E0CD105B913B176
S1132390109E013E1096102A109E03D1BCF1000F2E
S11323A000D0023E1196119EC91B8919B1F5FF7F19
S11323B029DA394607EB0908119EC1EB0808B04534
S11323C08A4604DA4FF0300601F8016DF2E7102A6C
S11323D00AD1BCF1000F07D030B1302001F8014C14
S11323E0A1F1020A01F8020C0DB12D2306E0012B24
S11323F001D12B2302E0022B07D120230AF8013C50
S11324000AF1FF3A01E04FF0000A504605B0BDE87A
S1132410F08F00002DE9F04FADF50D7D1D46202312
S1132420069089468DF82E30924600269AF80000D0
S1132430002800F0E0815046252100F0D4FE0790EA
S113244078B9504600F0DCFE02463618002800F049
S1132450D28148465146069CA047002840F0CB81D3
S113246046E1079CCAEB0402B61892B9079A079989
S113247052784B1C252A144612D1079F002307F1DA
S1132480020A984601279C461946089309936E2A26
S113249045E048465146069CA0470028E6D127E17E
S11324A00021099101272B2A00F0A08106DC202AB3
S11324B00FD0232A40F0A780012199E12D2A00F0B2
S11324C09381302A40F09F80002F14BF02270027F9
S11324D08EE1099801280CBF0124022487E12B68AE
S11324E0DA43D40F0894827804350230A2F16804E8
S11324F0042C00F22B81DFF80CA3DFF80CE31AF8AC
S113250004C01EF904400CB1427801306E2AD4B2E2
S113251040F01F816E2C00F1010A00F046810BD8B7
S1132520632C63D003D8252C66D0582C0CE0642C83
S11325300CD0692C7AD109E0732C36D001D86F2CD9
S113254002E0752C12D0782C70D10FE0BCF1030F8F
S1132550286805F1040B18D0BCF1020F01D100B2B8
S113256013E0BCF1010F10D140B20EE0BCF1030F37
S1132570286805F1040B08D0BCF1020F01D180B228
S113258003E0BCF1010F08BFC0B28DE81201039350
S11325908CA93A46099BFFF771FE0546002845D0F1
S11325A00DF22F20C5EB000C4CE005F1040B944A0E
S11325B02D68002D08BF154641B1089915F801CBC7
S11325C000293FD09C45A8BF9C463BE0089A28467A
S11325D042B11A46059300F0FAFD059B88B3C5EB9A
S11325E0000C2FE000F00CFE84462BE0296805F176
S11325F0040B8DF8301002E08DF83040AB460CAD82
S11326004FF0010C1EE02A2A40F0E080D5F800804B
S11326105A782C1DB8F1000FB8BFC8F10008254640
S1132620B8BF0027581CB8F5FF7F75DB079800F08A
S1132630E7FD02463618002800F0DD804846079979
S113264009E79C46002F46D0022F14BF20203020DB
S11326508DF82E002A782B2A03D02D2A01D0202A87
S113266011D130280FD1CDF814C048462946012293
S1132670069B9847DDF814C0002839D00CF1FF31CF
S11326800135079101E0CDF81CC0022F14D1612C53
S113269001D0412C10D1079C012C29DDCDF814C0A8
S11326A0484629460222069CA047DDF814C0F8B12A
S11326B0079CA01E079002356446444508DA484644
S11326C00DF12E010122069B984788B10134F4E7ED
S11326D0DDF81CC000E06446BCF1000F01D1C7B9AD
S11326E015E0484629466246069B98470028F6D1DD
S11326F04FF0FF367FE020228DF82F2048460DF161
S11327002F010122069B98470028F1D0013444454B
S1132710F1DB36195D4689E62E2A14D142782A2A3D
S11327203FF4DDAE441C0023A2F1300CBCF1090FD0
S1132730204605D80A2000FB03C314F8012FF3E751
S113274001240894D2E600230893CFE64FF0000C4E
S1132750DCE608DC632A1DD001DC582A13E0642A75
S113276012D0692A0FE0732A16D009DC6F2A0BD025
S1132770702A18D1782408234FF0030C0121C9E6EC
S1132780752A01D0782A0ED1089A52B1022F08BFB7
S11327900127BFE6089A32B9BCF1000F18BFFF2425
S11327A0B8E60123B6E6FF24B4E6BCF1020F05F156
S11327B0040B2D6806D0BCF1030F05D0BCF1000F4B
S11327C0A8D101E02E80A5E72E60A3E74FF0000812
S11327D0A2F13004092C18463FF625AF0A2202FB69
S11327E0084801334278F3E7002701E00124099403
S11327F013F8012F57E630460DF50D7DBDE8F08F37
S1132800443300004A330000453300002DE9F04F03
S1132810A5B00024074688460B9392460A94089470
S1132820A3460694079426469AF80050002D00F01B
S11328303883284600F072FB08B30AF10105AA4662
S113284005F101059AF8000000F068FB0028F6D1B4
S1132850002C40F02483002140460A46B847054630
S113286000F05CFB08B10136F5E7681C04D12E9832
S1132870002800F01683012440462946ECE2252D69
S113288015D0A4B9214640462246B847C1B2A94250
S113289009D001224046B8472E9A002A00F001834D
S11328A00AF1010AFBE201360AF1010ABCE7002140
S11328B028221AA8FFF7DCFC9AF801906FF0004C6C
S11328C0B9F1250FCDF86CC04B4615D18DF86B903E
S11328D00DF1680EBEE80F0010AD0FC5BEE80F0085
S11328E00FC59EE8030085E80300002163460AF152
S11328F0020A09918C4607E12A2B02D00AF101054C
S113290006E001238DF868309AF802300AF10205D6
S1132910A3F13002092A31D8681C4FF0000C303B77
S11329200A2101FB0C3C054610F8013BA3F13002DF
S1132930092AF4D9CDF86CC0BCF1000F1BD14FF0BB
S1132940FF098DF86B900DF1680ABAE80F000DF1DC
S1132950400EAEE80F00BAE80F00AEE80F009AE8A8
S113296003009DF86820CDF824C08EE8030005F12B
S1132970010A6346BAE001208DF86900682B05D08E
S11329806C2B0FD103238DF86A3009E06A78022199
S1132990682A8DF86A1003D101208DF86A002D1879
S11329A06B7801358DF86B30583B202B7FD8DFE8EE
S11329B003F0817E7E317E7E7E7E7E7E7E16817EEB
S11329C07E7E7E817E7E7E7E8181117E7E1B7E81E7
S11329D07E7E810003218DF86A10782368E09DF8DB
S11329E06A00002866D062E09DF86A2012B1FF20D8
S11329F08DF86B00002324A9CA180133FF20202B73
S1132A0002F8200CF7D1C121FE228DF871108DF847
S1132A1074204FE09DF86A3013B1FF218DF86B10DC
S1132A206B785E2B02D00135002102E0AB780121E6
S1132A3002355D2B07D120226B788DF87B20013580
S1132A4001E0EB78033593B35D2B00F04882C3F3C8
S1132A50C4020DF1900E724403F0070012F820AC8A
S1132A604FF0010909FA00F04AEA000002F8200CCC
S1132A7068782D2818D1AA78B2B15D2A14D0013310
S1132A809342DEDC0DF1900CC3F3C400604403F008
S1132A90070E10F820CC4FF0010909FA0EFA4CEA9F
S1132AA00A0E00F820ECEAE701350346CBE7FF23E2
S1132AB08DF86B300DF1680ABAE80F000DF140098A
S1132AC0A9E80F00BAE80F00A9E80F009AE803008C
S1132AD089E803009DF86A109DF868209DF869C094
S1132AE09DF86B901B9B099105F1010A3AB9B9F164
S1132AF0250F09D00B98021D05680B9200E00025F4
S1132B00B9F16E0F01D1B6E100250CB101240EE03C
S1132B100493CDF814C0404621460222B847049BD2
S1132B20DDF814C018B12E980028EFD1B9E1B9F13D
S1132B30690F2ED015D8B9F15B0F00F01E8106D8AD
S1132B40B9F1250F00F0E180B9F1580F1DE0B9F19A
S1132B50630F00F08C80B9F1640F40F0A2810A2069
S1132B6018E0B9F1730F00F0EC8009D8B9F16E0FD9
S1132B7000F08181B9F16F0F40F09381082041E0AA
S1132B80B9F1750F3DD0B9F1780F40F08A8110206A
S1132B9038E00020CCB90DA900910EAA0FA901922A
S1132BA002913A461946434600F0CCF90D9B23B9ED
S1132BB02E9868B90121089173E10E9AF6184AB16A
S1132BC0B0F1004F06D0404204E00124002001E0AF
S1132BD0012418467DB1099B032B08D8DFE803F0D4
S1132BE006020406287002E0288000E0286014B978
S1132BF0079D6A1C079206980123411C06910893BD
S1132C0012E60A20D4B90DA900910EAA0FA90192C7
S1132C1002913A461946434600F094F90D9B2BB9AC
S1132C202E980028C6D00124184609E00E9AF618FA
S1132C3032B1B0F1004F03D0404201E00124002042
S1132C407DB10999032908D8DFE801F006020406DA
S1132C50287002E0288000E0286014B9079D6B1CEE
S1132C600793069A0121501C06900891DCE5BCF1FB
S1132C70000F08BF0123002D2ED000220D92002C3E
S1132C8040F00D8105EB03094D4516D02E9921B175
S1132C900D9800280FDA01220A92002140460A46C4
S1132CA0B847B0F1FF3F834607D005F801BB0D9943
S1132CB04B1C0D93E8E700230A930D98002800F0BD
S1132CC09D802E9D1DB10A99002900F0E880079B84
S1132CD05A1C3618079214E00D955D1E691C0CD021
S1132CE0002140460A46B847013DB0F1FF3F834604
S1132CF003D00D98431C0D93F0E70D99002900F0C3
S1132D00D0800698451C06958EE5002C40F0C480C2
S1132D10002140460A46B847054600F0FFF808B1CE
S1132D200136F5E7252D08D0012240462946B8474B
S1132D302E9A002A3FF43EAFAEE0012301360893F9
S1132D4072E5C4B94046214622460493B847049B21
S1132D508146049300F0E2F8049B20B1002101367F
S1132D6040460A46F1E7404649460122B847012059
S1132D700890049B01E001220892002D49D0002212
S1132D800D92002C40F08B80013B5A1C99462AD0AE
S1132D902E9820B10D99002923DC01220A920021EA
S1132DA040460A460493B847B0F1FF3F834604986F
S1132DB019D05FFA8BF20DF1900E431E0EEBD20088
S1132DC00BF007014FF0010C10F8480C0CFA01F15C
S1132DD0084208D005F8012B0D9A02EB0C010D9165
S1132DE0D3E700230A930D9B5FFA8BF11BB12E9856
S1132DF040B10A9A32B940460122B8472E9B002BB3
S1132E004FD04CE0F61800232B70079D681C0790E8
S1132E1027E00D955D1E6B1CA94619D00021404684
S1132E200A46B847B0F1FF3F834611D0CBF3C40242
S1132E3024A988180BF00703012110F8482C01FA83
S1132E4003F3013D1A4203D00D9841180D91E2E7B6
S1132E500D9D25B9404659460122B847E4E4761948
S1132E605946B9F1000F02DB40460122B8470699E2
S1132E704A1C0692D8E4002D3FF4D6AC099A032AE2
S1132E803FF6D2ACDFE802F0040602042E80CBE465
S1132E902E60C9E42E70C7E401240894C4E401241C
S1132EA0C2E4404600210222B84728B1069B1BBB5E
S1132EB04FF0FF3207921FE0069AEAB90899D9B198
S1132EC011464046B8470699044602224046B84790
S1132ED00028EDD1404621460122B8470CE00029E4
S1132EE03FF4E8AD00231AA8C2180133117AC8438D
S1132EF0202B1072F7D1DDE5079825B0BDE8F08FDF
S1132F00B0F5807F05D8044B1818417801F0010012
S1132F1070470020704700BF4F330000B0F5807F3A
S1132F2006D8044B1818417801F01002D0B270474B
S1132F30002070474F330000A0F16103192B98BFA4
S1132F40203870472DE9F74F15461E460E9A0D9B03
S1132F5001910021B0F100091960116018DBB9F189
S1132F60010F15D0B9F1240F12DC0198884207DD56
S1132F7030460A46A8474FF0010B82465C4602E001
S1132F808A468B464024C846B9F1000F07D002E0B8
S1132F908A468B4640244FF0FF38B8FBF9F80027E7
S1132FA00097019B9B4500F3C180BAF1FF3F00F0FD
S1132FB0BD8014F0600F40F0B980601E0F28F0D877
S1132FC001A353F820F000BF093000005530000081
S1132FD0A32F000079300000A32F0000A32F0000CE
S1132FE0A32F0000AB300000A32F0000A32F00008C
S1132FF0A32F0000A32F0000A32F0000A32F000085
S1133000A32F0000AB3000005046FFF787FF0146B6
S113301040B1002130460A46A847009B8246581C0E
S11330200090BEE7BAF12B0F06D130460A46A847F6
S11330300BF1010B82460BE0BAF12D0F08D10A46C1
S11330403046A8470D9A01210BF1010B824611600D
S11330500224A6E7B9F1000F02D0B9F1100F63D131
S1133060BAF1300F60D1002130460A46A8470BF16F
S1133070010B8246042494E7BAF1580F02D0BAF146
S1133080780F0AD1002130460A46A8470BF1010BFC
S1133090824608244FF0100983E71024B9F1000F89
S11330A07FF47FAF4FF008097BE7B9F1000F08BF49
S11330B04FF00A09B8F1000F03D14FF0FF3EBEFBF9
S11330C0F9F8AAF13002092A02D84A4512DB0AE0CB
S11330D05046FFF715FF30B15046FFF72DFFA0F122
S11330E036034B4504DD102C14BF4024202458E73C
S11330F0A0F13702474598BF0E9C07FB09F798BF1C
S113310021680E9C88BF0121D3B2F843834288BF53
S1133110012121600021D71930460A46A8470BF146
S1133120010B824610243CE708243AE714F03404E7
S113313003D10C9F3C60274606E000990C9A0BF1E2
S1133140FF3C0CEB01001060304651460122A847B9
S11331503846BDE8FE8F00BF1F2A30B5C9B22FD94B
S1133160444214F0030406D0121B0023C15401335B
S1133170A342FBD1C01829B10D0445EA01630B43F6
S113318043EA012155090ED02C46034619605960C3
S11331909960D960196159619961D9612033013C01
S11331A0F4D100EB4510C2F382033BB11C46054643
S11331B0013C45F8041BFBD100EB830002F0030241
S11331C022B1821800F8011B9042FBD130BDC9B274
S11331D08218904205D010F8013B8B42F9D1013896
S11331E0704700207047C9B2034613F8012B1AB187
S11331F08A4204D01846F7E7002918BF0020704718
S113320003461A46013311780029FAD1101A70477F
S113321010B50C4C0C4B9C4203D054F8040B804763
S1133220F8E70A4C0A48844203D054F8043B984710
S1133230F8E7084C08498C4203D054F8042B904713
S1133240F8E710BD50340000503400005034000042
S113325050340000503400005034000010B5084CC5
S1133260084B9C4203D054F8042B9047F8E7064CD3
S11332700648844203D054F8041D8847F8E710BD7B
S1133280503400005034000050340000503400002A
S113329088421ED0EAB18B0709D1830707D1032ADC
S11332A005D951F8043B043A40F8043BF2E7CB0754
S11332B009D4C30707D4012A05D931F8023B023ADD
S11332C020F8023BE6E711F8013B013A00F8013B24
S11332D0E0E7704710B50A4C8CB1083454F8081C68
S11332E031B154F8040C54F80C2BFFF7D1FFF5E777
S11332F054F8043C002BF4D120680028F1D110BD0F
S113330078340000044B10B51C6824B16168A068CF
S113331088472468F9E710BD4800FF1F074B18468B
S1133320002800F00880854681B04FF000006FEA65
S11333300000009001B0F746704700BF0000002075
S1133340F74670470001000000010200000003007E
S11333508080808080808080809090909090808019
S11333608080808080808080808080808080808059
S113337018040404040404040404040404040404F5
S1133380020202020202020202020404040404040D
S1133390044343434343434141414141414141414A
S11333A0414141414141414141414104040404043A
S11333B0042323232323232121212121212121210A
S11333C021212121212121212121210404040480FE
S11333D000000000000000000000000000000000E9
S11333E000000000000000000000000000000000D9
S11333F000000000000000000000000000000000C9
S113340000000000000000000000000000000000B8
S113341000000000000000000000000000000000A8
S11334200000000000000000000000000000000098
S11334300000000000000000000000000000000088
S11334400000000000000000000000000000000078
S1133450EA518025A0BE622A3C2921BA2028FF0017
S11334600010000000200000004000000080000068
S10B347000000100000002004D
S1133478503400000000FF1F2800000078340000CA
S11334880000002000000000000000000000000010
S1073498000000002C
S9030CD51B
